:020000040800F2
:100000000000022085100008590200085B02000869
:100010005D0200085F0200086102000800000000A5
:100020000000000000000000000000006302000863
:10003000650200080000000067020008690200086D
:10004000D9100008D9100008D9100008D9100008EC
:10005000D9100008D9100008D9100008D9100008DC
:10006000D9100008D9100008D9100008D9100008CC
:10007000D9100008D9100008D9100008D9100008BC
:10008000D9100008D9100008D9100008D9100008AC
:10009000D9100008D9100008D9100008D91000089C
:1000A000D9100008D9100008D9100008D91000088C
:1000B000D9100008D9100008D9100008D91000087C
:1000C000D9100008D9100008D9100008D91000086C
:1000D000D9100008D9100008D9100008D91000085C
:1000E000D9100008D9100008D9100008D91000084C
:1000F000D9100008D9100008D9100008D91000083C
:10010000D9100008D9100008D9100008D91000082B
:10011000D9100008D9100008D9100008D91000081B
:10012000D9100008D9100008D9100008D91000080B
:10013000D9100008D9100008D9100008D9100008FB
:10014000D9100008D9100008D9100008D9100008EB
:10015000D9100008D9100008D9100008D9100008DB
:10016000D9100008D9100008D9100008D9100008CB
:10017000D9100008D9100008D9100008D9100008BB
:08018000D9100008D910000895
:1001880010B5054C237833B9044B13B10448AFF3C9
:1001980000800123237010BD5804002000000000D7
:1001A800E4100008084B10B51BB108480849AFF324
:1001B80000800848036803B910BD074B002BFBD02B
:1001C800BDE81040184700BF00000000E410000818
:1001D8005C0400205404002000000000154B002B94
:1001E80008BF134B9D46A3F5803A00218B460F4666
:1001F8001348144A121A00F0E3FD0F4B002B00D0ED
:1002080098470E4B002B00D098470020002104008F
:100218000D000D48002802D00C4800F093FE00F0B5
:10022800A7FD2000290000F00FFF00F091FD00BF9E
:1002380000000800000000000000000000000000AE
:1002480058040020740400204D0F0008590F0008BE
:100258007047FEE7FEE7FEE7FEE770477047704726
:1002680070470000344B1A68002142F001021A60FE
:1002780099601A6822F0847222F480321A602F4A38
:100288005A601A6882B022F480221A60D9600091FC
:1002980001911A6842F480321A60274B1A6802F4F6
:1002A80000320192009A01320092019A1AB9009A1A
:1002B800B2F5A04FF1D11B6813F4003318BF012326
:1002C8000193019B012B05D01D4B4FF000629A60F2
:1002D80002B07047184B1B491A6C42F080521A64DE
:1002E8000A6842F440420A609A689A609A6842F43E
:1002F80000429A609A6842F4A0529A60124A5A6080
:100308001A6842F080721A6019680B4A8901FBD595
:100318000E4B40F205611960936823F00303936064
:10032800936843F002039360034B9B6803F00C034C
:10033800082BF9D1C8E700BF00380240103000246C
:1003480000ED00E00070004008544007003C024007
:10035800174A1849936803F00C03042B03D0082BA1
:1003680003D0154B18E0154B16E05068536810F48D
:10037800800F03F03F03506814BF104A0E4AB2FBC7
:10038800F3F30B4A5268C2F30142C0F388100132FA
:1003980043435200B3FBF2F30B60054B9B68C3F376
:1003A80003130B441A790B68D3400B60704700BFE6
:1003B80000380240040000200024F40000127A00F3
:1003C80008B54FF48040012100F09AFB4FF48040BB
:1003D8000021BDE8084000F093BB014B186070474E
:1003E80000380140014B1860704700BF20002742C9
:1003F80001F0030301F0FC0101F1804101F59C319A
:1004080010B59B008C680F229A4024EA02028A6089
:100418008A68984002438A6010BD014B1860704793
:10042800DC002742014B1860704700BF00042742D8
:10043800024B186AC0F30020704700BF0038014023
:1004480040F0BF60024B40F40030D860704700BFF6
:1004580000ED00E0C278037810B512B3164AD168EF
:100468004278C943C1F30221C1F10404E4B2A240B5
:10047800D4B20F220A4181780A40224303F1604333
:1004880003F561431201D2B283F8002303780122F5
:10049800590903F01F0302FA03F3084A42F821300E
:1004A80010BD5A09012103F01F03994002F12003EE
:1004B800024A42F8231010BD00ED00E000E100E020
:1004C80021F0604121F07F01014B0843986070479B
:1004D80000ED00E0044B1A6909B1104301E022EA7B
:1004E80000001861704700BF00ED00E0044B1A6877
:1004F80004280CBF42F0040222F004021A6070477C
:1005080010E000E008B5374B984205D101200146BC
:1005180000F0C6FA01205EE0334B984205D1022074
:10052800012100F0BDFA022055E0304B984205D178
:100538000420012100F0B4FA04204CE02C4B98422E
:1005480005D10820012100F0ABFA082043E0294B2F
:10055800984205D11020012100F0A2FA10203AE0BB
:10056800254B984205D12020012100F099FA20203E
:1005780031E0224B984205D14020012100F090FA49
:10058800402028E01E4B984205D18020012100F030
:1005980087FA80201FE01B4B984207D14FF48070E8
:1005A800012100F07DFA4FF4807014E0164B984258
:1005B80007D14FF40070012100F072FA4FF4007077
:1005C80009E0124B98420BD14FF48060012100F0F2
:1005D80067FA4FF480600021BDE8084000F060BA77
:1005E80008BD00BF000002400004024000080240AD
:1005F800000C0240001002400014024000180240A3
:10060800001C024000200240002402400028024052
:10061800F0B50E6800220123934003EA060E9E45BA
:100628002AD1550003230468AB40DB431C40046017
:100638000C79076804FA05FC013C4CEA0707012C11
:10064800076011D884684F791C4084608468AF4083
:1006580027438760446824EA0E0444608C7947681D
:100668009440A4B23C434460C4682340C360CB793F
:10067800C468AB402343C3600132102ACBD1F0BD1C
:100688004FF6FF7303600023037143718371C371D5
:10069800704782B04FF480330193019B0B43019361
:1006A800019BC361C161019BC361C3690193C369B4
:1006B800019302B070470369194214BF012000205A
:1006C8007047006980B270474369194214BF01201E
:1006D80000207047406980B27047018370474183AA
:1006E80070470AB101837047418370474161704781
:1006F800436959404161704701F00703C90800EB9D
:10070800810010B59B00046A0F21994024EA010179
:100718000162016A9A401143016210BD0E4B1A68CA
:10072800002142F001021A6099601A6822F0A8526A
:1007380022F410221A60094A5A60094AC3F8842030
:1007480002F18062C3F888201A6822F480221A60B5
:10075800D960C3F88C10704700380240103000246C
:1007680000300020024B00221A701870704700BF3A
:1007780002380240034A136823F0F80343EAC00032
:100788001060704700380240014B1860704700BF86
:1007980000004742064B002201281A701A7002D046
:1007A800042802D070471870704705221A707047E5
:1007B80070380240014B1860704700BF800E4742F6
:1007C80010B5029C40EA046001435B08013B41EA22
:1007D800821242EA0340014B586010BD00380240C3
:1007E800014B1860704700BF600047420907034B80
:1007F80041EA8010C3F88400704700BF0038024007
:10080800014B1860704700BF68004742120742EA70
:100818000161034B41EA8010C3F88800704700BFAC
:1008280000380240014B1860704700BF7000474213
:10083800014B1860704700BF4C004742034A936859
:1008480023F0EC6319430843906070470038024076
:10085800034A936823F0784319430843906070472C
:1008680000380240034A936823F00303184390605A
:10087800704700BF00380240024B986800F00C0037
:10088800704700BF00380240034A936823F0F00322
:1008980018439060704700BF00380240034A9368CD
:1008A80023F4E05318439060704700BF00380240BB
:1008B800034A936823F4604343EAC000906070479A
:1008C800003802401D4A936803F00C03042B10B54E
:1008D80003D0082B03D01A4B18E01A4B16E05168C6
:1008E800536811F4800F03F03F03516814BF154A91
:1008F800134AB2FBF3F3114A5268C2F30142C1F33F
:10090800881101324B435200B3FBF2F30B4A0360E8
:1009180093680D49C3F30313CC5C0368E340436059
:100928009468C4F382240C5D23FA04F4846092680A
:10093800C2F342328A5CD340C36010BD0038024023
:100948000024F40000127A001800002000F440731C
:10095800094AB3F5407F01BF936820F0704123F442
:10096800F81321F4407104BF0B439360136FC0F375
:100978000B0018431067704700380240014B18609D
:10098800704700BF3C0E4742014B1860704700BFDC
:10099800400E4742014B1860704700BF5C01474258
:1009A800044AD2F88C3023F440131843C2F88C0060
:1009B800704700BF00380240044AD2F88C3023F454
:1009C80040031843C2F88C00704700BF003802404B
:1009D800044AD2F88C30013823F01F030343C2F8CD
:1009E8008C30704700380240054AD2F88C30013804
:1009F80023F4F85343EA0023C2F88C30704700BF51
:100A080000380240044AD2F88C3023F440331843AB
:100A1800C2F88C00704700BF00380240014B1860D4
:100A2800704700BFE0114742044B1A6B09B11043ED
:100A380001E022EA00001863704700BF0038024056
:100A4800044B5A6B09B1104301E022EA00005863D5
:100A5800704700BF00380240044B9A6B09B110433D
:100A680001E022EA00009863704700BF00380240A6
:100A7800044B1A6C09B1104301E022EA0000186423
:100A8800704700BF00380240044B5A6C09B110434C
:100A980001E022EA00005864704700BF00380240B5
:100AA800044B1A6909B1104301E022EA00001861F9
:100AB800704700BF00380240044B5A6909B110431F
:100AC80001E022EA00005861704700BF0038024088
:100AD800044B9A6909B1104301E022EA00009861C9
:100AE800704700BF00380240044B1A6A09B110432E
:100AF80001E022EA00001862704700BF0038024097
:100B0800044B5A6A09B1104301E022EA0000586216
:100B1800704700BF00380240044B1A6D09B11043FA
:100B280001E022EA00001865704700BF0038024063
:100B3800044B5A6D09B1104301E022EA00005865E0
:100B4800704700BF00380240044B9A6D09B110434A
:100B580001E022EA00009865704700BF00380240B3
:100B6800044B1A6E09B1104301E022EA000018662E
:100B7800704700BF00380240044B5A6E09B1104359
:100B880001E022EA00005866704700BF00380240C2
:100B9800044B1A6F01280CBF42F0080222F0080229
:100BA8001A67704700380240044B1A7809B110439D
:100BB80001E022EA00001870704700BF0D380240BB
:100BC8004209012A084B01D11A6803E0022A0CBF26
:100BD8001A6F5A6F00F01F00012383401A4214BF96
:100BE80001200020704700BF0038024007B50023ED
:100BF80001933120FFF7E4FF019B01330193019B2F
:100C0800B3F5A04F01D00028F3D03120FFF7D8FF6B
:100C1800003018BF012003B05DF804FB024A536F8F
:100C280043F080735367704700380240034BDB681A
:100C3800184214BF01200020704700BF003802404E
:100C4800014B1870704700BF0E380240044B002259
:100C58001A605A609A60DA60024A5A61704700BFA7
:100C6800003C0140FFFF7F0082790168037970B57D
:100C7800002A29D0194A1568CE43354015605468B2
:100C880003F1804303F59E33344054601C682143CC
:100C9800196003689468DD432C409460D16829404A
:100CA800D160417910290BBF916801F18042194345
:100CB80002F59E3205BF9160D16811680B4316BFDB
:100CC8000B43D360136070BD03F1804303F59E337B
:100CD8001A6822EA0101196070BD00BF003C01409A
:100CE80000230C2203600371427183717047024A2A
:100CF8001369184310617047003C0140034B5B695E
:100D0800184214BF01200020704700BF003C01407A
:100D1800014B5861704700BF003C0140034B5B69C1
:100D2800184214BF01200020704700BF003C01405A
:100D3800014B5861704700BF003C01401411000886
:100D480000000020540400205804002074040020EF
:100D580008B50021044600F08BF8044B1868C36BF3
:100D680003B19847204600F05BF900BFE010000887
:100D780070B50F4E0F4D761BB61018BF002405D066
:100D8800013455F8043B9847A642F9D10A4E0B4D59
:100D9800761B00F0A5F9B61018BF002406D0013460
:100DA80055F8043B9847A642F9D170BD70BD00BF05
:100DB800081100080811000810110008081100089F
:100DC80070B4840746D0541E002A41D0CDB20346E1
:100DD80002E0621EE4B3144603F8015B9A07F8D1F7
:100DE800032C2ED9CDB245EA05250F2C45EA054539
:100DF80019D903F110022646103E0F2E42F8105C56
:100E080042F80C5C42F8085C42F8045C02F11002FB
:100E1800F2D8A4F1100222F00F0204F00F041032ED
:100E2800032C13440DD91E462246043A032A46F8D9
:100E3800045BFAD8221F22F003020432134404F0A0
:100E480003042CB1C9B21C4403F8011BA342FBD113
:100E580070BC704714460346C2E700BF024B13B18B
:100E6800024800F06FB8704700000000590F0008F2
:100E78002DE9F04F314B83B01B68009303F5A47341
:100E880081460E460193009BD3F8487127B3DDF8DD
:100E980004A07C68651E0ED4013407EB84044FF06F
:100EA8000008E6B1D4F80031B34218D0013D6B1CFC
:100EB800A4F10404F5D1224B73B17B68002B36D121
:100EC8003B68002B34D03846CAF80030AFF30080B6
:100ED800DAF80070002FDCD103B0BDE8F08F7B6832
:100EE8002268013BAB420CBF7D60C4F80080002A39
:100EF800DCD0D7F88831D7F804B00121A9401942CD
:100F080008D190477B685B45BDD1DAF80030BB4219
:100F1800CCD0B8E7D7F88C31194204D14846D4F878
:100F280080109047EEE7D4F880009047EAE73B68E6
:100F3800BA461F46002FACD1CEE700BFE01000082C
:100F480000000000014600200246034600F016B8E3
:100F580038B5084B084DED1AAC1018BFED1805D080
:100F6800013C55F8043D9847002CF9D1BDE83840BC
:100F780000F0BCB810110008141100082DE9F04762
:100F8800254C2568D5F84841064688469246994634
:100F9800CCB360681F2818DC431C7EB104EB8005C5
:100FA8000121C5F888A0D4F8887101FA00F2174326
:100FB800022EC4F88871C5F808911ED0023063600B
:100FC80044F820800020BDE8F087144B03B34FF4A9
:100FD800C870AFF300800446D0B1D5F84831002777
:100FE80080E88800C5F8484138460123C4F888716C
:100FF800C4F88C71002EE1D0D0E7D4F88C110A43E4
:10100800C4F88C21DAE705F5A674C5F84841C0E7AD
:101018004FF0FF30BDE8F087E01000080000000046
:101028004FF0FF3100F000B8062930B50CBF044D71
:10103800044D182420462946ABBE0446204630BD40
:1010480023000200260002000A4A136B43F008033B
:101058001363094B1A6842F080721A605A685A6022
:101068009A6842F000729A60DA68DA604FF4805247
:101078001A83FEE700380240000C0240002103E01A
:101088000D4B5B58435004310C480D4B42189A42A3
:10109800F6D30C4A02E0002342F8043B0A4B9A427A
:1010A800F9D30A48016841F470010160FFF7DAF8E2
:1010B800FFF7CAFF70470000141100080000002065
:1010C80054040020580400207404002088ED00E037
:1010D800FEE7000043000000280000200000000098
:1010E800F8B500BFF8BC08BC9E467047F8B500BF0D
:0810F800F8BC08BC9E467047DD
:08110000E4F0FF7F0100000094
:08110800650E0008AD010008AE
:041110008901000849
:1011140000000000007A030A000000000000000044
:101124000102030406070809000000000102030489
:10113400010203040607080900000000140300204C
:101144007C030020E40300200000000000000000F5
:10115400000000000000000000000000000000008B
:10116400000000000000000000000000DC10000887
:10117400000000000000000000000000000000006B
:10118400000000000000000000000000000000005B
:10119400000000000000000000000000000000004B
:1011A400000000000000000000000000000000003B
:1011B400000000000000000000000000000000002B
:1011C400000000000000000000000000000000001B
:1011D400000000000000000000000000000000000B
:1011E40001000000000000000E33CDAB34126DE6A8
:1011F400ECDE05000B000000000000000000000011
:1012040000000000000000000000000000000000DA
:1012140000000000000000000000000000000000CA
:1012240000000000000000000000000000000000BA
:1012340000000000000000000000000000000000AA
:04156400280000203B
:04156800000000007F
:04000005080010855A
:00000001FF
